:100000000C9435000C945D000C945D000C945D0024
:100010000C945D000C945D000C945D000C945D00EC
:100020000C945D000C945D000C945D000C945D00DC
:100030000C945D000C945D000C945D000C945D00CC
:100040000C94FA050C945D000C946A040C942F0433
:100050000C945D000C945D000C945D000C945D00AC
:100060000C945D000C945D00910611241FBECFEF2F
:10007000D8E0DEBFCDBF11E0A0E0B1E0EAE7F2E1F9
:1000800002C005900D92A433B107D9F725E0A4E38F
:10009000B1E001C01D92A932B207E1F710E0C5E35B
:1000A000D0E004C02197FE010E942609C433D10785
:1000B000C9F70E94DB060C9498080C94000080E9B4
:1000C00091E00895569A089580E090E00895FC012B
:1000D000858596850895CF93DF9300D000D000D01A
:1000E000CDB7DEB7AB011C821D821E82DC01ED9113
:1000F000FC910190F081E02D19821A821B829E01F1
:100100002F5F3F4FBE016C5F7F4F099526960FB65C
:10011000F894DEBF0FBECDBFDF91CF9108954F920F
:100120005F926F927F928F92AF92BF92CF92EF9237
:10013000FF920F931F93CF93DF933C01EB010E943B
:10014000A404F30127853089621B730B6A307105A3
:10015000B0F3F894E881F9815BB150648BB18F7B87
:100160008BB969859E81262F291B922F2E83BF84F0
:100170004A805B807C85FD84EE847F5FF394E3940A
:100180003F814885AA84CB841081D20120E0C32F0F
:10019000022F322F3081112788943111390F08F442
:1001A0003FEF9195889470FD130F1795889471FD1A
:1001B000130F1795889472FD130F1795889473FD8C
:1001C000130F1795889474FD130F1795889475FD78
:1001D000130F1795889476FD130F1795889477FD64
:1001E000130F17958894232F7111212F960F122F1B
:1001F000002C5BB900C017FF8BB93181222788948E
:1002000000C000C0002C8BB931113C0F00C0002C85
:100210005BB900C016FF8BB908F43FEFC195889415
:1002200000C000C0002C8BB9F0FC230F00C0002CD4
:100230005BB900C015FF8BB927958894F1FC230F9B
:1002400000C000C0002C8BB92795889400C0002CFA
:100250005BB900C014FF8BB9F2FC230F279588947B
:1002600000C000C0002C8BB9F3FC230F00C0002C91
:100270005BB900C013FF8BB927958894F4FC230F5A
:1002800000C000C0002C8BB92795889400C0002CBA
:100290005BB900C012FF8BB9F5FC230F279588943A
:1002A00000C000C0002C8BB9F6FC230F00C0002C4E
:1002B0005BB900C011FF8BB927958894F7FC230F19
:1002C00000C000C0002C8BB92795889400C0002C7A
:1002D0005BB900C010FF8BB9132FF110122FCA0D9C
:1002E00000C000C0002C8BB900C000C0002C5BB95E
:1002F00000C017FF8BB932812227889400C000C04C
:10030000002C8BB93111340F00C0002C5BB900C038
:1003100016FF8BB908F43FEFEB0DF11D00C000C0D4
:10032000002C8BB9E0FC230F00C0002C5BB900C08F
:1003300015FF8BB927958894E1FC230F00C000C0FE
:10034000002C8BB92795889400C0002C5BB900C0A5
:1003500014FF8BB9E2FC230F2795889400C000C0DE
:10036000002C8BB9E3FC230F00C0002C5BB900C04C
:1003700013FF8BB927958894E4FC230F00C000C0BD
:10038000002C8BB92795889400C0002C5BB900C065
:1003900012FF8BB9E5FC230F2795889400C000C09D
:1003A000002C8BB9E6FC230F00C0002C5BB900C009
:1003B00011FF8BB927958894E7FC230F00C000C07C
:1003C000002C8BB92795889400C0002C5BB900C025
:1003D00010FF8BB9132FE110122F419500C000C000
:1003E000002C8BB94C0D00C000C05BB900C017FFDA
:1003F0008BB930812227889400C000C0002C8BB9B3
:100400003111390F00C0002C5BB900C016FF8BB949
:1004100008F43FEF9195889400C000C0002C8BB980
:1004200070FD230F00C0002C5BB900C015FF8BB915
:100430002795889471FD230F00C000C0002C8BB954
:100440002795889400C0002C5BB900C014FF8BB9BD
:1004500072FD230F2795889400C000C0002C8BB933
:1004600073FD230F00C0002C5BB900C013FF8BB9D4
:100470002795889474FD230F00C000C0002C8BB911
:100480002795889400C0002C5BB900C012FF8BB97F
:1004900075FD230F2795889400C000C0002C8BB9F0
:1004A00076FD230F00C0002C5BB900C011FF8BB993
:1004B0002795889477FD230F00C000C0002C8BB9CE
:1004C0002795889400C0002C5BB900C010FF8BB941
:1004D000132F7111122F960F00C000C0002C8BB982
:1004E000119709F086CE20EE31E0D2010E9400097A
:1004F000DC01CB01F4E0B695A79597958795FA9521
:10050000D1F720E030E0A9016AE9469E040C411DC4
:10051000569E400D511D1124450D511D840F951FF0
:10052000A11DB11D893E43E09407A105B10508F462
:1005300034C0885E9340A109B10942E0B695A79501
:10054000979587954A95D1F747E0849F080E211D1E
:10055000949F200D311D1124290F311D609134010C
:1005600070E0860F971F820F931F409135015091C5
:1005700036016091370170913801292F3327420FDE
:10058000531F611D711D40933501509336016093D7
:100590003701709338018093340178940E94A40449
:1005A000F301708B6787DF91CF911F910F91FF90BF
:1005B000EF90CF90BF90AF908F907F906F905F90B3
:1005C0004F9008950F931F93CF93DF93CDB7DEB76E
:1005D00062970FB6F894DEBF0FBECDBF8C01F90154
:1005E000DC011C968C917A8369835C834B835E83E8
:1005F0004D8390819D8791819E8792819F878130D5
:1006000029F4CE0101960E94440606C01C861B8672
:100610001A86198618861F8283E0888B1A8A198A9F
:10062000D801ED91FC910484F585E02DBE016F5F4A
:100630007F4FC801099562960FB6F894DEBF0FBED2
:10064000CDBFDF91CF911F910F9108950F931F930D
:10065000CF93DF93CDB7DEB762970FB6F894DEBFC6
:100660000FBECDBF8C01F901DC011C968C917A8301
:1006700069835C834B835E834D8390819D879181E9
:100680009E8792819F87813029F4CE0101960E9436
:10069000440606C01C861B861A86198618861F8289
:1006A000188A1A8A198AD801ED91FC910484F5857B
:1006B000E02DBE016F5F7F4FC801099562960FB6AE
:1006C000F894DEBF0FBECDBFDF91CF911F910F9188
:1006D0000895CF92DF92EF92FF920F931F93CF93E3
:1006E000DF936C01EB017B01E40EF51E00E010E0EE
:1006F000CE15DF0561F06991D601ED91FC91019075
:10070000F081E02DC6010995080F191FF1CFC8012E
:10071000DF91CF911F910F91FF90EF90DF90CF90DD
:1007200008950F931F93CF93DF93FC01A685B785A0
:100730008D01005C1F4FE8018881998101968F73BC
:100740009927AD014E5B5F4FEA01288139818217FD
:100750009307D1F3E80128813981A20FB31F6C936D
:10076000A685B785A05CBF4F11969C938E93A689F2
:10077000B7892C9181E090E0078C02C0880F991F07
:100780000A94E2F7822B8C9381E081A30488F58997
:10079000E02D80818064808381E090E0DF91CF91C3
:1007A0001F910F910895FC0181A1882329F0A4894C
:1007B000B5898C9186FFFBCF11A20895FC01A48519
:1007C000B585FD01E05CFF4F20813181329680814B
:1007D00091812817390779F080819181A80FB91F7D
:1007E0008C91208131812F5F3F4F2F7333273183CD
:1007F000208390E008958FEF9FEF0895DC011C9611
:10080000ED91FC911D97DF01A05CBF4F2D913C91B4
:10081000119712968D919C9111972817390739F0ED
:100820008D919C91E80FF91F808190E008958FEFE2
:100830009FEF0895FC0124853585F901E05CFF4FA9
:1008400080819181329620813181821B930B8F733D
:100850009927089587E095E00C941A0408951F9253
:100860000F920FB60F9211242F933F938F939F9364
:10087000EF93FF932091BF043091C0048091C10495
:100880009091C2042817390731F48091C1008F7DFF
:100890008093C10014C0E091C104F091C204E158FA
:1008A000FB4F20818091C1049091C20401968F7307
:1008B00099279093C2048093C1042093C600FF91AE
:1008C000EF919F918F913F912F910F900FBE0F90BD
:1008D0001F9018951F920F920FB60F9211242F930D
:1008E0004F935F938F939F93EF93FF938091C000FB
:1008F00082FD1CC02091C6008091030590910405E3
:1009000001968F739927409105055091060584172C
:10091000950771F0E0910305F0910405ED53FB4F4D
:100920002083909304058093030502C08091C60044
:10093000FF91EF919F918F915F914F912F910F9028
:100940000FBE0F901F9018953FB7F89480913B0110
:1009500090913C01A0913D01B0913E0126B5A89B2C
:1009600005C02F3F19F00196A11DB11D3FBFBA2F41
:10097000A92F982F8827820F911DA11DB11DBC01A1
:10098000CD0142E0660F771F881F991F4A95D1F766
:1009900008953F924F925F926F927F928F929F92B3
:1009A000AF92BF92CF92DF92EF92FF920F931F937D
:1009B000CF93DF9300D01F92CDB7DEB7F82E809192
:1009C000750490917604A0917704B0917804892BF6
:1009D0008A2B8B2BE9F00E94A40400916E041091E5
:1009E0006F042091700430917104DC01CB01801BF5
:1009F000910BA20BB30B009175041091760420911A
:100A000077043091780480179107A207B307B8F2F2
:100A10000E94A40460936E0470936F04809370042A
:100A200090937104E0917D04F0917E04309759F029
:100A30004091790450917A0460917B0470917C0418
:100A40008F2D0995F82E00916C0410916D044F2C98
:100A5000512C612C712C0115110509F461C0D801CC
:100A60001C96EC901C9780917304909174048436CA
:100A7000910510F41C961C92D801ED91FC91A28076
:100A8000B38019821A821B82F11014C0F8014585C7
:100A90005685628173819E012F5F3F4FC801F5012A
:100AA0000995D8011C96EC921C9714960D911C91F7
:100AB0001597D1CFF8013996CE0101966C01480106
:100AC0009CE0890E911CDF0113973C90219133200B
:100AD00001F12223F1F0822F90E0A0E0B0E09C0130
:100AE000AD012F5F3F4F4F4F5F4FC301B2010E94D7
:100AF0009B089B01AC01832D90E0A0E0B0E0BC011D
:100B0000CD016F5F7F4F8F4F9F4F0E949B08D60193
:100B10008C93BFEFCB1ADB0AE815F905A1F6B6CF27
:100B200080916A0490916B049C012F5F3F4F30933A
:100B30006B0420936A0449970CF447C08FB7F8946C
:100B40000091350110913601209137013091380123
:100B50008FBFE0916A04F0916B0488EE93E0E89F08
:100B6000B001E99F700DF89F700D1124072E000C45
:100B7000880B990BC0906604D0906704E0906804DD
:100B8000F0906904A90198012C193D094E095F09EB
:100B90000E94BF08309374042093730410926B0476
:100BA00010926A042FB7F894809135019091360124
:100BB000A0913701B09138012FBF809366049093C4
:100BC0006704A0936804B09369040F900F900F908E
:100BD000DF91CF911F910F91FF90EF90DF90CF9019
:100BE000BF90AF909F908F907F906F905F904F904D
:100BF0003F9008951F920F920FB60F9211242F93DA
:100C00003F938F939F93AF93BF93809135019091C2
:100C10003601A0913701B091380130913A0123E0BB
:100C2000230F2D3720F40196A11DB11D05C026E824
:100C3000230F0296A11DB11D20933A018093350127
:100C400090933601A0933701B093380180913B0116
:100C500090913C01A0913D01B0913E010196A11DF2
:100C6000B11D80933B0190933C01A0933D01B09353
:100C70003E01BF91AF919F918F913F912F910F9026
:100C80000FBE0F901F901895EF92FF920F931F9336
:100C9000CF93DF93EC01909139019F5F292F27704B
:100CA0002093390190FF02C090E801C090E021FD3F
:100CB0009064247009F0906220E1290FFE013C96B7
:100CC0007E018FE0E80EF11C00E011E061916623E7
:100CD00031F070E0C8010E94AB086F5F01C060E0B6
:100CE000DF0114976C93322F369F030E30E0311DD5
:100CF0001124CF010797311103C0EC01188203C002
:100D00003150EC013883662311F061506C93EE157D
:100D1000FF05E1F6DF91CF911F910F91FF90EF90CA
:100D20000895E2E7F4E08FEF808312821182148647
:100D300013868FEF9FEFDC0187839087A187B287AF
:100D4000E7E0F5E01382128288EE93E0A0E0B0E0E5
:100D500084839583A683B78386E291E09183808321
:100D600083EC94E0958784878FE794E09787868764
:100D700085EC90E0918B808B84EC90E0938B828B60
:100D800080EC90E0958B848B81EC90E0978B868B48
:100D900082EC90E0918F808F86EC90E0938F828F31
:100DA00084E0848F83E0858F87E0868F85E0878F5E
:100DB00081E080A30895789484B5826084BD84B571
:100DC000816084BD85B5826085BD85B5816085BD46
:100DD00080916E00816080936E00109281008091FE
:100DE0008100826080938100809181008160809386
:100DF0008100809180008160809380008091B100AB
:100E000084608093B1008091B00081608093B000D5
:100E100080917A00846080937A0080917A00826069
:100E200080937A0080917A00816080937A0080912B
:100E30007A00806880937A001092C10080915201FC
:100E4000811145C010924401109243018FEF8093AD
:100E50004701809348018093490180934A01809320
:100E60004B0180934C0181E080934D0110924F0122
:100E700010924E01109246011092450180916C042F
:100E800090916D04892B31F481E491E090936D048D
:100E900080936C04E0913F01F0914001309721F084
:100EA00081E491E09583848381E491E09093400113
:100EB00080933F01109251011092500184E191E022
:100EC000909342018093410181E080935201E0912F
:100ED0004101F09142010480F581E02D81E491E02F
:100EE00009958AE591E0909344018093430180E065
:100EF00091E090934F0180934E01E0914101F09178
:100F000042010284F385E02D81E491E00995009788
:100F100029F19C0140E050E060E472E48FE090E051
:100F20000E94E108722F632F0091750410917604DE
:100F30002091770430917804872F962FDA0180175B
:100F40009107A207B30710F4D901C8018093750473
:100F500090937604A0937704B09378048FEF8093F6
:100F6000470180EB8093480180EF8093490188E03E
:100F700080937204E0911B05F0911C0581E090E0E4
:100F80009C010090270502C0220F331F0A94E2F74C
:100F90002083E0911705F09118051082E091190562
:100FA000F0911A0520E1208310922805E0911D059B
:100FB000F0911E0540819C010090230502C0220F84
:100FC000331F0A94E2F7242B2083E0911D05F09152
:100FD0001E0540819C010090240502C0220F331F92
:100FE0000A94E2F7242B2083E0911D05F0911E0561
:100FF00040819C010090250502C0220F331F0A94F6
:10100000E2F7242B2083E0911D05F0911E0520813D
:101010000090260502C0880F991F0A94E2F7809578
:1010200082238083809172040E94C9040FE010E043
:1010300041E050E062E371E087E095E00E946903DF
:101040001092650410926404C0916404D091650408
:10105000C031D1050CF065C0109263041092620497
:101060007E0144E0EE0CFF1C4A95E1F76E0181E041
:10107000C822DD24A0906204B090630480E1A81629
:10108000B1040CF048C087E095E00E941A04039771
:10109000D4F387E095E00E94DE03982E80936004ED
:1010A0009093610487E095E00E94DE03882E809390
:1010B0005E0490935F0487E095E00E94DE03282F92
:1010C00080935C0490935D04C114D10441F4C80181
:1010D0008A199B0990935B0480935A0404C0B092D0
:1010E0005B04A0925A04E0915A04F0915B04EE0D67
:1010F000FF1DCF01880F991FE80FF91FE65AFE4F19
:101100008082918222838FEFA81AB80AB09263047A
:10111000A0926204AFCF2196D0936504C09364047B
:1011200093CF809172040E94C9040E942A0480CF48
:10113000F8940C943B09DB018F939F930E9407095D
:10114000BF91AF91A29F800D911DA39F900DB29F63
:10115000900D1124089597FB072E16F4009407D0E4
:1011600077FD09D00E94120907FC05D03EF4909546
:1011700081959F4F0895709561957F4F0895A1E2E5
:101180001A2EAA1BBB1BFD010DC0AA1FBB1FEE1F01
:10119000FF1FA217B307E407F50720F0A21BB30B4C
:1011A000E40BF50B661F771F881F991F1A9469F7C8
:1011B00060957095809590959B01AC01BD01CF0124
:1011C0000895052E97FB1EF400940E94F80857FD21
:1011D00007D00E94BF0807FC03D04EF40C94F80817
:1011E00050954095309521953F4F4F4F5F4F089553
:1011F00090958095709561957F4F8F4F9F4F089583
:101200000E942C09B7FF0895821B930B08950E943A
:101210002C09A59F900DB49F900DA49F800D911D4A
:1012200011240895AA1BBB1B51E107C0AA1FBB1FB5
:10123000A617B70710F0A61BB70B881F991F5A9562
:10124000A9F780959095BC01CD010895EE0FFF1F81
:101250000590F491E02D0994A29FB001B39FC001C5
:10126000A39F700D811D1124911DB29F700D811DD2
:0A1270001124911D0895F894FFCF9A
:10127A00000000002E042E042E046B006700640098
:10128A00000000002603E20262006B0067005F00B4
:10129A008F0000000000910369031A04DE03FE03B5
:0412AA00D303520018
:00000001FF
